:020000020000FC
:0200000033C00B
:02001400E4C046
:100068000FEF0DBF08E00EBF0E945A000E94630008
:100078000E9473000027009302010FEF0093010113
:100088000E947C000E94130178940E94180120911C
:100098000001203039F0213031F0223029F02330AE
:1000A80021F05BC036C03BC046C04BC002E00AB975
:1000B8000CE70BB907E004B9002705B90895002734
:1000C8000093C00000E00093C50007E60093C40059
:1000D80008E10093C10006E00093C200089504E01F
:1000E8000093680000E400936D0004E00BBB0895E2
:1000F80009B105FF06C004FF08C004E00093000131
:10010800089500E000930001089502E000930001C3
:1001180008950E94FC0009B102FF2DC0B6CF0E94CD
:10012800FF000E94E40008F43EC009B104FF2CC09F
:1001380003FF30C0AACF0E94FC0009B103FF2AC008
:10014800A4CF0E9402010E94E40008F42CC009B167
:1001580005FF0BC002FF0FC098CF0E94FC0009B139
:1001680002FF09C003FF16C090CF00E00093000112
:100178000E9447018ACF00270093020101E0009303
:1001880000010E94470181CF02E0009300010E9414
:1001980047017BCF00270093020103E00093000191
:1001A8000E94470172CF0E94FC00002700930201C1
:1001B8000E94420104E0009300010E94470165CFBC
:1001C80000910201003029F409B106FF02C08894A9
:1001D8000895089408950F930FB70F9309B106FD7A
:1001E80003C001E0009302010F910FBF0F91189512
:1001F800002705B9089505E005B9089506E005B991
:1002080008951091C00015FFFCCF0093C600089513
:100218000591003019F00E940501FACF0895ECE924
:10022800F2E00E940C010895009100011091010173
:10023800011719F100930101003039F0013051F034
:10024800023069F0033081F014C0E0EBF2E00E9464
:100258000C0113C0E2ECF2E00E940C010EC0E4EDC8
:10026800F2E00E940C0109C0E6EEF2E00E940C01E7
:1002780004C0EEE0F3E00E940C010895E8EFF2E01C
:100288000E940C01089530E54FEF4A95F1F73A9531
:10029800D9F708950D0A434F4E54524F4C20504FF2
:1002A80052544F4E0D0A00005055455254412043B8
:1002B8004552524144410D0A00005055455254419F
:1002C8002041425249454E444F0D0A00505545526F
:1002D800544120414249455254410D0A00005055AD
:1002E800455254412043455252414E444F0D0A0055
:1002F8004F4253544143554C4F2044455445435471
:1003080041444F0D0A004D4F56494D49454E544FF3
:1003180020444554454E49444F20504F52205345A0
:0A032800475552494441440D0A00B4
:00000001FF
