:020000020000FC
:0200000033C00B
:02001400DAC050
:100068000FEF0DBF08E00EBF0E945A000E94630008
:100078000E9470000027009302010FEF0093010116
:100088000E9479000E94090178940E940E01209133
:100098000001203039F0213031F0223029F02330AE
:1000A80021F054C033C038C041C046C002E00AB98C
:1000B8000CE70BB907E004B9002705B9089500E07B
:1000C8000093C50007E60093C40008E10093C1004F
:1000D80006E00093C200089504E00093680000E47D
:1000E80000936D0004E00BBB089509B105FF06C03D
:1000F80004FF08C004E000930001089500E00093A5
:100108000001089502E00093000108950E94F200A2
:1001180009B102FF29C0B9CF0E94F5000E94DD0095
:1001280009B104FF2AC003FF2EC0AFCF0E94F2001E
:1001380009B103FF28C0A9CF0E94F8000E94DD0082
:1001480009B105FF0BC002FF0FC09FCF0E94F2004C
:1001580009B102FF09C003FF16C097CF00E0009362
:1001680000010E943D0191CF00270093020101E0A8
:10017800009300010E943D0188CF02E00093000136
:100188000E943D0182CF00270093020103E0009303
:1001980000010E943D0179CF0E94F20000270093E0
:1001A80002010E94380104E0009300010E943D0111
:1001B8006CCF00910201003079F709B106FFECCF4E
:1001C80008950F930FB70F9309B106FD03C001E01F
:1001D800009302010F910FBF0F911895002705B9E1
:1001E800089505E005B9089506E005B90895109148
:1001F800C00015FFFCCF0093C6000895059100309C
:1002080019F00E94FB00FACF0895E8E8F2E00E9496
:10021800020108950091000110910101011719F1DF
:1002280000930101003039F0013051F0023069F0DB
:10023800033081F014C0ECE9F2E00E94020113C01F
:10024800EEEAF2E00E9402010EC0E0ECF2E00E9449
:10025800020109C0E2EDF2E00E94020104C0EAEFE7
:10026800F2E00E9402010895E4EEF2E00E94020129
:10027800089530E54FEF4A95F1F73A95D9F7089583
:100288000D0A434F4E54524F4C20504F52544F4E2C
:100298000D0A0000505545525441204345525241E1
:1002A80044410D0A000050554552544120414252E4
:1002B80049454E444F0D0A0050554552544120417E
:1002C8004249455254410D0A000050554552544187
:1002D8002043455252414E444F0D0A004F42535459
:1002E8004143554C4F2044455445435441444F0DD8
:1002F8000A004D4F56494D49454E544F20444554E8
:10030800454E49444F20504F522053454755524976
:060318004441440D0A00FF
:00000001FF
