:020000020000FC
:1000000000C00FEF0DBF08E00EBF0E9417000E9456
:100010001C003FEF0E9437000E943C002317E1F3D1
:10002000322F022F0E9429000E944800F5CF02E0E3
:100030000AB90CE10BB9089500E00093C50007E68A
:100040000093C40008E00093C10006E00093C200E2
:1000500008951091C00015FFFCCF0093C6000895CD
:100060000591003019F00E942900FACF0895EEE9B9
:10007000F0E00E9430000895222709B102FD01C07E
:10008000216003FD01C0226004FD089524600895ED
:1000900040E55FEF5A95F1F74A95D9F708950D0AB3
:1000A0005452414E534D49534F5220554152540DD5
:0200B0000A0044
:00000001FF
