:020000020000FC
:1000000000C00FEF0DBF08E00EBF0E9417000E9456
:100010001C003FEF0E943A000E943F002317E1F3CB
:10002000322F022F0E942C000E944B00F5CF02E0DD
:100030000AB90CE10BB9089500270093C00000E055
:100040000093C50007E60093C40008E00093C100D8
:1000500006E00093C20008951091C00015FFFCCF88
:100060000093C60008950591003019F00E942C00FD
:10007000FACF0895E4EAF0E00E94330008952227C1
:1000800009B102FD01C0216003FD01C0226004FD31
:1000900008952460089540E55FEF5A95F1F74A9579
:1000A000D9F708950D0A5452414E534D49534F52BA
:0800B00020554152540D0A00D5
:00000001FF
