:020000020000FC
:1000000000C00FEF0DBF08E00EBF0E9412000E945B
:100010001A000E9444000E942A002830E0F70E9443
:100020004900F9CF0EEF0AB903E004B900270BB974
:1000300005B9089500270093C00000E00093C500B3
:1000400007E60093C40008E10093C10006E00093B6
:10005000C20008950091C00007FFFCCF2091C600A8
:10006000203318F0283308F4205308951091C0006D
:1000700015FFFCCF0093C60008950591003019F0DC
:100080000E943600FACF0895ECEBF0E00E943D00AC
:10009000089531E0422F442319F0330F4A95FBCFE6
:1000A000032F000F000F0BB9032F06950695069539
:1000B000069506950695037005B908950D0A5245F3
:1000C000434550544F5220554152540D0A000000F0
:00000001FF
