:020000020000FC
:1000000000C00FEF0DBF08E00EBF0E941A000E9453
:10001000230000E00093000100930201009303011C
:1000200002E1009301010E9418010E9495000E94C4
:10003000FE00FBCF0EEF0AB90FE304B90FE007B9DA
:100040000E94EE00089500E00093C50007E60093CB
:10005000C40008E10093C10006E00093C2000895C7
:100060001091C00015FFFCCF0093C60008950591C4
:10007000003019F00E943000FACF08950091C000BE
:1000800007FF08954091C600413389F04233A9F03B
:100090004333B9F04433C9F04533D9F04B32E9F07A
:1000A0004D3269F14D36F1F14D34E1F1089500E042
:1000B0000093000100930301089501E00093000103
:1000C000089502E000930001089503E00093000109
:1000D000089504E0009300010895009101010930A2
:1000E00038F0055000930101112710930201089583
:1000F00004E000930101112710930201089500917B
:100100000101093240F415E0010F009301011127AC
:100110001093020108950DE200930101112710933D
:10012000020108950E941801089520E00E94A40091
:100130000E94D1000E94F7000E943E0023952830C3
:10014000A8F30E94EE00089500910001003039F0FC
:100150000130B9F00230C1F00330C9F01BC080910A
:1001600003019927880F991F880F991F880F991FDE
:10017000E2E2F3E0E80FF91FE20F0027F01F3491ED
:100180000895E2E0F3E008C0EAE0F3E005C0E2E150
:10019000F3E002C0EAE1F3E0E20F0027F01F349140
:1001A00008950E94EE00032F007F069506950360D8
:1001B000263011F40E7F03C0273009F40D7F05B9F6
:1001C000032F0F7008B9EAEFF2E0E20F0027F01FEB
:1001D00014910BB10370012B0BB908950BB103708F
:1001E0000C6F0BB903E005B900E008B9089516E4F7
:1001F00000E50A95F1F71A95D9F7089500910201E3
:10020000039510910101011780F00027009302016E
:1002100010910001103059F410910301139513351A
:1002200008F0112710930301089500930201089527
:10023000EAE7F2E00E943700EAE9F2E00E943700C4
:10024000E4EAF2E00E943700E0EBF2E00E943700BF
:10025000EAEBF2E00E943700E6ECF2E00E943700A1
:10026000E2EDF2E00E943700E2EEF2E00E94370099
:10027000E0EFF2E00E94370008950D0A4C41424F32
:100280005241544F52494F2032202D204D4154525B
:10029000495A203858380D0A000031205445585426
:1002A0004F0D0A003220434F52415A4F4E0D0A0063
:1002B0003320434152410D0A00003420464C45434F
:1002C00048410D0A000035205052554542410D0A63
:1002D00000002B204D41532052415049444F0D0AFC
:1002E00000002D204D4153204C454E544F0D0A0027
:1002F0004D204D454E550D0A0000FBF7EFDFBF7F47
:10030000FFFF0066FFFF7E3C18003C42A581A599D7
:10031000423C180C06FFFF060C18AA55AA55AA5510
:10032000AA55080D0A0808080800111B151111111B
:10033000110022362A2222222200456D55454545CC
:1003400045008ADAAA8A8A8A8A0014B555151515D5
:100350001400296AAA2A2A2A290053D4545454542E
:100360005300A72828282828A7004E515050505144
:100370004E009CA2A0A0A0A29C003945414141454D
:100380003900738A8283828A7200E7140407051495
:10039000E400CF28080F0A29C8009E51111E1452EC
:1003A00091003CA2223C28A422007845457951497D
:1003B0004400F18A8AF2A2928900E31414E44424EE
:1003C0001300C72828C8884827008E5151911191E1
:1003D0004E001CA2A22222229C00384545444444DF
:1003E0003900718A8A8988887300E3141413101005
:1003F000E700C72828272020CF008F50504E4141CA
:100400009E001EA0A09C82823C003C404038040418
:100410007800788080700808F000F00000E010108C
:10042000E000E00000C02020C000C1010181414186
:100430008100820202028282030004040404040494
:1004400007000808080808080F0010101010101006
:100450001F002020202020203E00404141414141FA
:100460007C00818282828282F900030404040404F5
:10047000F300070808080808E7000E111111111110
:10048000CE001C22222222229C00384444444444B0
:1004900038007088888888887000E010101010106C
:1004A000E000C02020202020C00081414141414186
:1004B0008100028382828282020004060504040411
:1004C0000400080D0A0808080800111B1511111175
:1004D000110022362A2222222200456D554545452B
:1004E00045008BDAAA8B8A8A8B0017B45417141430
:1004F00017002F68A82F28282F005FD0505E50507B
:100500005F00BEA0A0BCA0A0BE007C4040784041DF
:100510007C00F88080F08082F900F10000E00004A7
:10052000F300E30101C10109E600C70202820212E1
:10053000CC008E040404042498001C09090909490C
:1005400030003912121212926100732424242424E0
:10055000C300E748484848488700CE91919191915F
:100560000E009C22222222221C0039454545454589
:100570003900738A8A8B8A8A7200E714141715145B
:10058000E400CF28282F2A29C8009E51515E5452DA
:1005900091003CA2A2BCA8A4220078444478504810
:1005A0004400F08888F0A0908800E01010E040201F
:0A05B0001000C02020C08040200091
:00000001FF
